{
  "contractName": "Ownerap",
  "abi": [
    {
      "constant": true,
      "inputs": [
        {
          "internalType": "address",
          "name": "",
          "type": "address"
        }
      ],
      "name": "mapApproval",
      "outputs": [
        {
          "internalType": "uint256",
          "name": "",
          "type": "uint256"
        }
      ],
      "payable": false,
      "stateMutability": "view",
      "type": "function"
    },
    {
      "constant": true,
      "inputs": [],
      "name": "minApproval",
      "outputs": [
        {
          "internalType": "uint8",
          "name": "",
          "type": "uint8"
        }
      ],
      "payable": false,
      "stateMutability": "view",
      "type": "function"
    },
    {
      "constant": true,
      "inputs": [],
      "name": "info",
      "outputs": [
        {
          "internalType": "string",
          "name": "",
          "type": "string"
        }
      ],
      "payable": false,
      "stateMutability": "view",
      "type": "function"
    },
    {
      "constant": true,
      "inputs": [],
      "name": "quantOwner",
      "outputs": [
        {
          "internalType": "uint8",
          "name": "",
          "type": "uint8"
        }
      ],
      "payable": false,
      "stateMutability": "view",
      "type": "function"
    },
    {
      "constant": true,
      "inputs": [
        {
          "internalType": "uint256",
          "name": "",
          "type": "uint256"
        }
      ],
      "name": "arrayApproval",
      "outputs": [
        {
          "internalType": "address",
          "name": "",
          "type": "address"
        }
      ],
      "payable": false,
      "stateMutability": "view",
      "type": "function"
    },
    {
      "constant": true,
      "inputs": [
        {
          "internalType": "address",
          "name": "",
          "type": "address"
        }
      ],
      "name": "owner",
      "outputs": [
        {
          "internalType": "bool",
          "name": "",
          "type": "bool"
        }
      ],
      "payable": false,
      "stateMutability": "view",
      "type": "function"
    },
    {
      "inputs": [],
      "payable": false,
      "stateMutability": "nonpayable",
      "type": "constructor"
    },
    {
      "anonymous": false,
      "inputs": [
        {
          "indexed": false,
          "internalType": "uint8",
          "name": "_minBefore",
          "type": "uint8"
        },
        {
          "indexed": false,
          "internalType": "uint8",
          "name": "_minActual",
          "type": "uint8"
        }
      ],
      "name": "MinApprovalChanged",
      "type": "event"
    },
    {
      "anonymous": false,
      "inputs": [
        {
          "indexed": true,
          "internalType": "address",
          "name": "_address",
          "type": "address"
        }
      ],
      "name": "OwnerAdded",
      "type": "event"
    },
    {
      "anonymous": false,
      "inputs": [
        {
          "indexed": true,
          "internalType": "address",
          "name": "_address",
          "type": "address"
        }
      ],
      "name": "OwnerDeleted",
      "type": "event"
    },
    {
      "constant": false,
      "inputs": [
        {
          "internalType": "uint8",
          "name": "_minApproval",
          "type": "uint8"
        }
      ],
      "name": "changeMinApproval",
      "outputs": [],
      "payable": false,
      "stateMutability": "nonpayable",
      "type": "function"
    },
    {
      "constant": false,
      "inputs": [
        {
          "internalType": "address",
          "name": "_address",
          "type": "address"
        }
      ],
      "name": "addOwner",
      "outputs": [],
      "payable": false,
      "stateMutability": "nonpayable",
      "type": "function"
    },
    {
      "constant": false,
      "inputs": [
        {
          "internalType": "address",
          "name": "_address",
          "type": "address"
        }
      ],
      "name": "delOwner",
      "outputs": [],
      "payable": false,
      "stateMutability": "nonpayable",
      "type": "function"
    },
    {
      "constant": false,
      "inputs": [],
      "name": "doApproval",
      "outputs": [],
      "payable": false,
      "stateMutability": "nonpayable",
      "type": "function"
    },
    {
      "constant": false,
      "inputs": [],
      "name": "cancelApproval",
      "outputs": [],
      "payable": false,
      "stateMutability": "nonpayable",
      "type": "function"
    },
    {
      "constant": false,
      "inputs": [],
      "name": "resetAllApproval",
      "outputs": [],
      "payable": false,
      "stateMutability": "nonpayable",
      "type": "function"
    },
    {
      "constant": true,
      "inputs": [
        {
          "internalType": "address",
          "name": "_address",
          "type": "address"
        }
      ],
      "name": "checkApproval",
      "outputs": [
        {
          "internalType": "uint256",
          "name": "",
          "type": "uint256"
        }
      ],
      "payable": false,
      "stateMutability": "view",
      "type": "function"
    },
    {
      "constant": true,
      "inputs": [],
      "name": "listApproval",
      "outputs": [
        {
          "internalType": "address[]",
          "name": "",
          "type": "address[]"
        }
      ],
      "payable": false,
      "stateMutability": "view",
      "type": "function"
    },
    {
      "constant": true,
      "inputs": [],
      "name": "countApproval",
      "outputs": [
        {
          "internalType": "uint256",
          "name": "",
          "type": "uint256"
        }
      ],
      "payable": false,
      "stateMutability": "view",
      "type": "function"
    },
    {
      "constant": false,
      "inputs": [
        {
          "internalType": "string",
          "name": "_info",
          "type": "string"
        }
      ],
      "name": "setInfo",
      "outputs": [],
      "payable": false,
      "stateMutability": "nonpayable",
      "type": "function"
    }
  ],
  "bytecode": "0x608060405234801561001057600080fd5b506003600090806001815401808255809150509060018203906000526020600020016000909192909190916101000a81548173ffffffffffffffffffffffffffffffffffffffff021916908373ffffffffffffffffffffffffffffffffffffffff160217905550506001600460006101000a81548160ff021916908360ff16021790555060016000803373ffffffffffffffffffffffffffffffffffffffff1673ffffffffffffffffffffffffffffffffffffffff16815260200190815260200160002060006101000a81548160ff02191690831515021790555060018060006101000a81548160ff021916908360ff160217905550611a5f806101156000396000f3fe608060405234801561001057600080fd5b50600436106101005760003560e01c80637398418811610097578063b9db9a6d11610066578063b9db9a6d146104bc578063e9262dae146104c6578063ec29e26c146104f7578063ee196fb81461054f57610100565b80637398418814610395578063937f6e77146103d9578063a1b2acc114610494578063a4bd7b8d1461049e57610100565b80634268adcd116100d35780634268adcd14610263578063491bb58814610287578063666e1b39146102f55780637065cb481461035157610100565b8063017ab25b1461010557806303ff90f61461015d5780632c6f11b814610181578063370158ea146101e0575b600080fd5b6101476004803603602081101561011b57600080fd5b81019080803573ffffffffffffffffffffffffffffffffffffffff169060200190929190505050610559565b6040518082815260200191505060405180910390f35b610165610571565b604051808260ff1660ff16815260200191505060405180910390f35b610189610584565b6040518080602001828103825283818151815260200191508051906020019060200280838360005b838110156101cc5780820151818401526020810190506101b1565b505050509050019250505060405180910390f35b6101e8610612565b6040518080602001828103825283818151815260200191508051906020019080838360005b8381101561022857808201518184015260208101905061020d565b50505050905090810190601f1680156102555780820380516001836020036101000a031916815260200191505b509250505060405180910390f35b61026b6106b0565b604051808260ff1660ff16815260200191505060405180910390f35b6102b36004803603602081101561029d57600080fd5b81019080803590602001909291905050506106c3565b604051808273ffffffffffffffffffffffffffffffffffffffff1673ffffffffffffffffffffffffffffffffffffffff16815260200191505060405180910390f35b6103376004803603602081101561030b57600080fd5b81019080803573ffffffffffffffffffffffffffffffffffffffff1690602001909291905050506106ff565b604051808215151515815260200191505060405180910390f35b6103936004803603602081101561036757600080fd5b81019080803573ffffffffffffffffffffffffffffffffffffffff16906020019092919050505061071f565b005b6103d7600480360360208110156103ab57600080fd5b81019080803573ffffffffffffffffffffffffffffffffffffffff1690602001909291905050506109e9565b005b610492600480360360208110156103ef57600080fd5b810190808035906020019064010000000081111561040c57600080fd5b82018360208201111561041e57600080fd5b8035906020019184600183028401116401000000008311171561044057600080fd5b91908080601f016020809104026020016040519081016040528093929190818152602001838380828437600081840152601f19601f820116905080830192505050505050509192919290505050610dd2565b005b61049c610e67565b005b6104a66111a0565b6040518082815260200191505060405180910390f35b6104c46111b0565b005b6104f5600480360360208110156104dc57600080fd5b81019080803560ff1690602001909291905050506112eb565b005b6105396004803603602081101561050d57600080fd5b81019080803573ffffffffffffffffffffffffffffffffffffffff169060200190929190505050611510565b6040518082815260200191505060405180910390f35b61055761155e565b005b60026020528060005260406000206000915090505481565b600460009054906101000a900460ff1681565b6060600380548060200260200160405190810160405280929190818152602001828054801561060857602002820191906000526020600020905b8160009054906101000a900473ffffffffffffffffffffffffffffffffffffffff1673ffffffffffffffffffffffffffffffffffffffff16815260200190600101908083116105be575b5050505050905090565b60058054600181600116156101000203166002900480601f0160208091040260200160405190810160405280929190818152602001828054600181600116156101000203166002900480156106a85780601f1061067d576101008083540402835291602001916106a8565b820191906000526020600020905b81548152906001019060200180831161068b57829003601f168201915b505050505081565b600160009054906101000a900460ff1681565b600381815481106106d057fe5b906000526020600020016000915054906101000a900473ffffffffffffffffffffffffffffffffffffffff1681565b60006020528060005260406000206000915054906101000a900460ff1681565b6000803373ffffffffffffffffffffffffffffffffffffffff1673ffffffffffffffffffffffffffffffffffffffff16815260200190815260200160002060009054906101000a900460ff166107dd576040517f08c379a00000000000000000000000000000000000000000000000000000000081526004018080602001828103825260158152602001807f61646472657373206d757374206265206f776e6572000000000000000000000081525060200191505060405180910390fd5b600460009054906101000a900460ff1660ff166001600380549050031015610850576040517f08c379a00000000000000000000000000000000000000000000000000000000081526004018080602001828103825260268152602001806119d16026913960400191505060405180910390fd5b80600015156000808373ffffffffffffffffffffffffffffffffffffffff1673ffffffffffffffffffffffffffffffffffffffff16815260200190815260200160002060009054906101000a900460ff16151514610916576040517f08c379a000000000000000000000000000000000000000000000000000000000815260040180806020018281038252600c8152602001807f6f776e657220657869737473000000000000000000000000000000000000000081525060200191505060405180910390fd5b60016000808473ffffffffffffffffffffffffffffffffffffffff1673ffffffffffffffffffffffffffffffffffffffff16815260200190815260200160002060006101000a81548160ff02191690831515021790555060018060008282829054906101000a900460ff160192506101000a81548160ff021916908360ff1602179055508173ffffffffffffffffffffffffffffffffffffffff167f994a936646fe87ffe4f1e469d3d6aa417d6b855598397f323de5b449f765f0c360405160405180910390a26109e5611785565b5050565b6000803373ffffffffffffffffffffffffffffffffffffffff1673ffffffffffffffffffffffffffffffffffffffff16815260200190815260200160002060009054906101000a900460ff16610aa7576040517f08c379a00000000000000000000000000000000000000000000000000000000081526004018080602001828103825260158152602001807f61646472657373206d757374206265206f776e6572000000000000000000000081525060200191505060405180910390fd5b600460009054906101000a900460ff1660ff166001600380549050031015610b1a576040517f08c379a00000000000000000000000000000000000000000000000000000000081526004018080602001828103825260268152602001806119d16026913960400191505060405180910390fd5b80600115156000808373ffffffffffffffffffffffffffffffffffffffff1673ffffffffffffffffffffffffffffffffffffffff16815260200190815260200160002060009054906101000a900460ff16151514610be0576040517f08c379a00000000000000000000000000000000000000000000000000000000081526004018080602001828103825260108152602001807f6f776e6572206e6f74206578697374730000000000000000000000000000000081525060200191505060405180910390fd5b600460009054906101000a900460ff1660ff16600160009054906101000a900460ff1660ff161015610c5d576040517f08c379a000000000000000000000000000000000000000000000000000000000815260040180806020018281038252603481526020018061199d6034913960400191505060405180910390fd5b8173ffffffffffffffffffffffffffffffffffffffff163373ffffffffffffffffffffffffffffffffffffffff161415610cff576040517f08c379a000000000000000000000000000000000000000000000000000000000815260040180806020018281038252601f8152602001807f616464726573732063616e206e6f742072656d6f766520796f757273656c660081525060200191505060405180910390fd5b60008060008473ffffffffffffffffffffffffffffffffffffffff1673ffffffffffffffffffffffffffffffffffffffff16815260200190815260200160002060006101000a81548160ff02191690831515021790555060018060008282829054906101000a900460ff160392506101000a81548160ff021916908360ff1602179055508173ffffffffffffffffffffffffffffffffffffffff167febfcf264b2104087f09153632448fc6624ccfe2984ade6a26248f2b9c28e436a60405160405180910390a2610dce611785565b5050565b600460009054906101000a900460ff1660ff166001600380549050031015610e45576040517f08c379a00000000000000000000000000000000000000000000000000000000081526004018080602001828103825260268152602001806119d16026913960400191505060405180910390fd5b8060059080519060200190610e5b9291906118aa565b50610e64611785565b50565b6000803373ffffffffffffffffffffffffffffffffffffffff1673ffffffffffffffffffffffffffffffffffffffff16815260200190815260200160002060009054906101000a900460ff16610f25576040517f08c379a00000000000000000000000000000000000000000000000000000000081526004018080602001828103825260158152602001807f61646472657373206d757374206265206f776e6572000000000000000000000081525060200191505060405180910390fd5b6000600260003373ffffffffffffffffffffffffffffffffffffffff1673ffffffffffffffffffffffffffffffffffffffff1681526020019081526020016000205411610fda576040517f08c379a00000000000000000000000000000000000000000000000000000000081526004018080602001828103825260188152602001807f61646472657373206e6f7420617070726f76656420796574000000000000000081525060200191505060405180910390fd5b6000600260003373ffffffffffffffffffffffffffffffffffffffff1673ffffffffffffffffffffffffffffffffffffffff1681526020019081526020016000205490506000600260003373ffffffffffffffffffffffffffffffffffffffff1673ffffffffffffffffffffffffffffffffffffffff16815260200190815260200160002081905550600060036001600380549050038154811061107a57fe5b9060005260206000200160009054906101000a900473ffffffffffffffffffffffffffffffffffffffff16905080600383815481106110b557fe5b9060005260206000200160006101000a81548173ffffffffffffffffffffffffffffffffffffffff021916908373ffffffffffffffffffffffffffffffffffffffff16021790555081600260008373ffffffffffffffffffffffffffffffffffffffff1673ffffffffffffffffffffffffffffffffffffffff168152602001908152602001600020819055506003805480919060019003611156919061192a565b506000600260003373ffffffffffffffffffffffffffffffffffffffff1673ffffffffffffffffffffffffffffffffffffffff168152602001908152602001600020819055505050565b6000600160038054905003905090565b6000803373ffffffffffffffffffffffffffffffffffffffff1673ffffffffffffffffffffffffffffffffffffffff16815260200190815260200160002060009054906101000a900460ff1661126e576040517f08c379a00000000000000000000000000000000000000000000000000000000081526004018080602001828103825260158152602001807f61646472657373206d757374206265206f776e6572000000000000000000000081525060200191505060405180910390fd5b600460009054906101000a900460ff1660ff1660016003805490500310156112e1576040517f08c379a00000000000000000000000000000000000000000000000000000000081526004018080602001828103825260268152602001806119d16026913960400191505060405180910390fd5b6112e9611785565b565b6000803373ffffffffffffffffffffffffffffffffffffffff1673ffffffffffffffffffffffffffffffffffffffff16815260200190815260200160002060009054906101000a900460ff166113a9576040517f08c379a00000000000000000000000000000000000000000000000000000000081526004018080602001828103825260158152602001807f61646472657373206d757374206265206f776e6572000000000000000000000081525060200191505060405180910390fd5b600460009054906101000a900460ff1660ff16600160038054905003101561141c576040517f08c379a00000000000000000000000000000000000000000000000000000000081526004018080602001828103825260268152602001806119d16026913960400191505060405180910390fd5b600160009054906101000a900460ff1660ff168160ff16111561148a576040517f08c379a00000000000000000000000000000000000000000000000000000000081526004018080602001828103825260348152602001806119f76034913960400191505060405180910390fd5b6000600460009054906101000a900460ff16905081600460006101000a81548160ff021916908360ff1602179055507f28ba3dd0593e12f9c24e7737e91b308e9d18a2a256100e24c371545a321bfaf68183604051808360ff1660ff1681526020018260ff1660ff1681526020019250505060405180910390a161150c611785565b5050565b600080600260008473ffffffffffffffffffffffffffffffffffffffff1673ffffffffffffffffffffffffffffffffffffffff16815260200190815260200160002054905080915050919050565b6000803373ffffffffffffffffffffffffffffffffffffffff1673ffffffffffffffffffffffffffffffffffffffff16815260200190815260200160002060009054906101000a900460ff1661161c576040517f08c379a00000000000000000000000000000000000000000000000000000000081526004018080602001828103825260158152602001807f61646472657373206d757374206265206f776e6572000000000000000000000081525060200191505060405180910390fd5b6000600260003373ffffffffffffffffffffffffffffffffffffffff1673ffffffffffffffffffffffffffffffffffffffff1681526020019081526020016000205411156116d2576040517f08c379a00000000000000000000000000000000000000000000000000000000081526004018080602001828103825260188152602001807f6164647265737320616c726561647920617070726f766564000000000000000081525060200191505060405180910390fd5b6000600160033390806001815401808255809150509060018203906000526020600020016000909192909190916101000a81548173ffffffffffffffffffffffffffffffffffffffff021916908373ffffffffffffffffffffffffffffffffffffffff16021790555003905080600260003373ffffffffffffffffffffffffffffffffffffffff1673ffffffffffffffffffffffffffffffffffffffff1681526020019081526020016000208190555050565b600060038054905090506001811115611832576000600190505b8181101561183057600060026000600384815481106117ba57fe5b9060005260206000200160009054906101000a900473ffffffffffffffffffffffffffffffffffffffff1673ffffffffffffffffffffffffffffffffffffffff1673ffffffffffffffffffffffffffffffffffffffff16815260200190815260200160002081905550808060010191505061179f565b505b600360006118409190611956565b6003600090806001815401808255809150509060018203906000526020600020016000909192909190916101000a81548173ffffffffffffffffffffffffffffffffffffffff021916908373ffffffffffffffffffffffffffffffffffffffff1602179055505050565b828054600181600116156101000203166002900490600052602060002090601f016020900481019282601f106118eb57805160ff1916838001178555611919565b82800160010185558215611919579182015b828111156119185782518255916020019190600101906118fd565b5b5090506119269190611977565b5090565b815481835581811115611951578183600052602060002091820191016119509190611977565b5b505050565b50805460008255906000526020600020908101906119749190611977565b50565b61199991905b8082111561199557600081600090555060010161197d565b5090565b9056fe7175616e744f776e6572206d75737420626520657175616c206f722067726561746572207468616e206d696e417070726f76616c63757272656e7420617070726f76616c73206973206c657373207468656e206d696e696d756d6d696e417070726f76616c206d75737420626520657175616c206f722067726561746572207468616e207175616e744f776e6572a265627a7a72315820d51c399caeeab5362f7bf456d09846988b9d0474a5415095d50fbf72b502938b64736f6c634300050b0032",
  "source": "//inicio\r\npragma solidity ^0.5.11;\r\n\r\ncontract Ownerap {\r\n\r\n    mapping (address => bool) public owner;\r\n    uint8 public quantOwner;\r\n    mapping (address => uint256) public mapApproval;\r\n    address[] public arrayApproval;\r\n    uint8 public minApproval;\r\n    \r\n    constructor() public {\r\n        arrayApproval.push(address(0x0));        //O indice zero do array não será utilizado\r\n        minApproval = 1;\r\n        owner[msg.sender] = true;\r\n        quantOwner = 1;\r\n    }\r\n\r\n    /*\r\n    * @dev Modifiers\r\n    */\r\n    modifier onlyApproved() {\r\n        require((arrayApproval.length - 1) >= minApproval, \"current approvals is less then minimum\");\r\n        _;\r\n    }\r\n    modifier notApproved() {\r\n        require(mapApproval[msg.sender] <= 0, \"address already approved\");\r\n        _;\r\n    }\r\n    modifier isApproved() {\r\n        require(mapApproval[msg.sender] > 0, \"address not approved yet\");\r\n        _;\r\n    }\r\n    modifier onlyOwner() {\r\n        require(owner[msg.sender], \"address must be owner\");\r\n        _;\r\n    }\r\n    modifier ownerExist(address _address) {\r\n        require(owner[_address] == true, \"owner not exists\");\r\n        _;\r\n    }\r\n    modifier ownerNotExist(address _address) {\r\n        require(owner[_address] == false, \"owner exists\");\r\n        _;\r\n    }\r\n\r\n\r\n    /*\r\n    * @dev MinApproval functions\r\n    */\r\n\r\n    event MinApprovalChanged(uint8 _minBefore, uint8 _minActual);\r\n\r\n    function changeMinApproval(uint8 _minApproval) public onlyOwner onlyApproved {\r\n        require(_minApproval <= quantOwner, \"minApproval must be equal or greater than quantOwner\");\r\n        uint8 _minBefore = minApproval;\r\n        minApproval = _minApproval;\r\n        emit MinApprovalChanged(_minBefore, _minApproval);\r\n        _clearAllApproval();\r\n    }\r\n\r\n    /*\r\n    * @dev Owner functions\r\n    */\r\n    event OwnerAdded(address indexed _address);\r\n    event OwnerDeleted(address indexed _address);\r\n    function addOwner(address _address) public onlyOwner onlyApproved ownerNotExist(_address) {\r\n        owner[_address] = true;\r\n        quantOwner += 1;\r\n        emit OwnerAdded(_address);\r\n        _clearAllApproval();\r\n    }\r\n\r\n    function delOwner(address _address) public onlyOwner onlyApproved ownerExist(_address) {\r\n        require(quantOwner >= minApproval, \"quantOwner must be equal or greater than minApproval\");\r\n        require(msg.sender != _address, \"address can not remove yourself\");\r\n        owner[_address] = false;\r\n        quantOwner -= 1;\r\n        emit OwnerDeleted(_address);\r\n        _clearAllApproval();\r\n    }\r\n    \r\n\r\n    /*\r\n    * @dev Address approvals\r\n    */\r\n    function doApproval() public onlyOwner notApproved {\r\n        uint256 index = arrayApproval.push(msg.sender) - 1;\r\n        mapApproval[msg.sender] = index;\r\n    } \r\n\r\n    function cancelApproval() public onlyOwner isApproved {\r\n        uint rowToDelete = mapApproval[msg.sender];\r\n        mapApproval[msg.sender] = 0;\r\n        address keyToMove = arrayApproval[arrayApproval.length-1];\r\n        arrayApproval[rowToDelete] = keyToMove;\r\n        mapApproval[keyToMove] = rowToDelete;\r\n        arrayApproval.length--;\r\n        mapApproval[msg.sender] = 0;\r\n    } \r\n\r\n    //Limpa as aprovações\r\n    function resetAllApproval() public onlyOwner onlyApproved {\r\n        _clearAllApproval();\r\n    } \r\n\r\n    function _clearAllApproval() internal {\r\n        uint256 length_ = arrayApproval.length;\r\n        if (length_ > 1) {\r\n            for (uint256 i = 1; i < length_; i++) {\r\n                mapApproval[arrayApproval[i]] = 0;\r\n            }\r\n        }\r\n        delete arrayApproval;\r\n        arrayApproval.push(address(0x0));\r\n    }\r\n    \r\n    //Verifica se determinado endereço aprovou, retorna o indice no array\r\n    function checkApproval(address _address) public view returns (uint256) {\r\n        uint256 index = mapApproval[_address];\r\n        return index;\r\n    } \r\n\r\n    //Lista endereços que aprovaram\r\n    function listApproval() public view returns (address[] memory) {\r\n        return arrayApproval;\r\n    }\r\n\r\n    //Retorna quantidade de aprovações\r\n    function countApproval() public view returns (uint256) {\r\n        return arrayApproval.length - 1;\r\n    }\r\n\r\n    string public info;\r\n\r\n    function setInfo(string memory _info) public onlyApproved  {\r\n        info = _info;\r\n        _clearAllApproval();\r\n    }\r\n    \r\n}\r\n//fim",
  "sourcePath": "C:\\ETH\\ownerapp\\contracts\\Ownerapp.sol",
  "compiler": {
    "name": "solc",
    "version": "0.5.11+commit.c082d0b4.Emscripten.clang"
  },
  "schemaVersion": "3.0.23",
  "updatedAt": "2020-01-30T23:39:32.341Z",
  "devdoc": {
    "methods": {}
  },
  "userdoc": {
    "methods": {}
  }
}